{
  "contractName": "Votacion",
  "abi": [
    {
      "inputs": [],
      "stateMutability": "nonpayable",
      "type": "constructor"
    },
    {
      "anonymous": false,
      "inputs": [
        {
          "indexed": false,
          "internalType": "uint256",
          "name": "dni",
          "type": "uint256"
        },
        {
          "indexed": false,
          "internalType": "string",
          "name": "apellido",
          "type": "string"
        },
        {
          "indexed": false,
          "internalType": "string",
          "name": "nombre",
          "type": "string"
        },
        {
          "indexed": false,
          "internalType": "address",
          "name": "billetera",
          "type": "address"
        }
      ],
      "name": "MesaAbierta",
      "type": "event"
    },
    {
      "inputs": [],
      "name": "presidenteMesa",
      "outputs": [
        {
          "internalType": "uint256",
          "name": "",
          "type": "uint256"
        }
      ],
      "stateMutability": "view",
      "type": "function",
      "constant": true
    },
    {
      "inputs": [
        {
          "internalType": "uint256",
          "name": "",
          "type": "uint256"
        }
      ],
      "name": "propuestas",
      "outputs": [
        {
          "internalType": "string",
          "name": "lista",
          "type": "string"
        },
        {
          "internalType": "uint256",
          "name": "contadorVotos",
          "type": "uint256"
        }
      ],
      "stateMutability": "view",
      "type": "function",
      "constant": true
    },
    {
      "inputs": [
        {
          "internalType": "uint256",
          "name": "",
          "type": "uint256"
        }
      ],
      "name": "votantes",
      "outputs": [
        {
          "internalType": "string",
          "name": "apellido",
          "type": "string"
        },
        {
          "internalType": "string",
          "name": "nombre",
          "type": "string"
        },
        {
          "internalType": "address",
          "name": "billetera",
          "type": "address"
        },
        {
          "internalType": "bool",
          "name": "voto",
          "type": "bool"
        },
        {
          "internalType": "uint256",
          "name": "pesoVoto",
          "type": "uint256"
        }
      ],
      "stateMutability": "view",
      "type": "function",
      "constant": true
    },
    {
      "inputs": [
        {
          "internalType": "uint256",
          "name": "_dni",
          "type": "uint256"
        },
        {
          "internalType": "string",
          "name": "_nombre",
          "type": "string"
        },
        {
          "internalType": "string",
          "name": "_apellido",
          "type": "string"
        }
      ],
      "name": "darAltaMesa",
      "outputs": [],
      "stateMutability": "nonpayable",
      "type": "function"
    },
    {
      "inputs": [
        {
          "internalType": "uint256",
          "name": "_dni",
          "type": "uint256"
        },
        {
          "internalType": "string",
          "name": "_nombre",
          "type": "string"
        },
        {
          "internalType": "string",
          "name": "_apellido",
          "type": "string"
        }
      ],
      "name": "autorizarVoto",
      "outputs": [],
      "stateMutability": "nonpayable",
      "type": "function"
    },
    {
      "inputs": [
        {
          "internalType": "uint256",
          "name": "_dni",
          "type": "uint256"
        },
        {
          "internalType": "uint256",
          "name": "_idPropuesta",
          "type": "uint256"
        }
      ],
      "name": "votar",
      "outputs": [],
      "stateMutability": "nonpayable",
      "type": "function"
    },
    {
      "inputs": [],
      "name": "obtenerResultado",
      "outputs": [
        {
          "components": [
            {
              "internalType": "string",
              "name": "lista",
              "type": "string"
            },
            {
              "internalType": "uint256",
              "name": "contadorVotos",
              "type": "uint256"
            }
          ],
          "internalType": "struct Votacion.Propuesta",
          "name": "",
          "type": "tuple"
        }
      ],
      "stateMutability": "view",
      "type": "function",
      "constant": true
    },
    {
      "inputs": [],
      "name": "obtenerPropuestas",
      "outputs": [
        {
          "components": [
            {
              "internalType": "string",
              "name": "lista",
              "type": "string"
            },
            {
              "internalType": "uint256",
              "name": "contadorVotos",
              "type": "uint256"
            }
          ],
          "internalType": "struct Votacion.Propuesta[]",
          "name": "",
          "type": "tuple[]"
        }
      ],
      "stateMutability": "view",
      "type": "function",
      "constant": true
    },
    {
      "inputs": [
        {
          "internalType": "uint256",
          "name": "_dni",
          "type": "uint256"
        }
      ],
      "name": "verificarVoto",
      "outputs": [
        {
          "internalType": "bool",
          "name": "",
          "type": "bool"
        }
      ],
      "stateMutability": "view",
      "type": "function",
      "constant": true
    }
  ],
  "bytecode": "0x60806040523480156200001157600080fd5b50600160405180604001604052806040518060400160405280600a81526020017f4c697374612035303152000000000000000000000000000000000000000000008152508152602001600081525090806001815401808255809150506001900390600052602060002090600202016000909190919091506000820151816000019080519060200190620000a69291906200015a565b50602082015181600101555050600160405180604001604052806040518060400160405280600a81526020017f4c697374612035303341000000000000000000000000000000000000000000008152508152602001600081525090806001815401808255809150506001900390600052602060002090600202016000909190919091506000820151816000019080519060200190620001479291906200015a565b506020820151816001015550506200026f565b828054620001689062000239565b90600052602060002090601f0160209004810192826200018c5760008555620001d8565b82601f10620001a757805160ff1916838001178555620001d8565b82800160010185558215620001d8579182015b82811115620001d7578251825591602001919060010190620001ba565b5b509050620001e79190620001eb565b5090565b5b8082111562000206576000816000905550600101620001ec565b5090565b7f4e487b7100000000000000000000000000000000000000000000000000000000600052602260045260246000fd5b600060028204905060018216806200025257607f821691505b602082108114156200026957620002686200020a565b5b50919050565b611477806200027f6000396000f3fe608060405234801561001057600080fd5b50600436106100935760003560e01c8063770bf99b11610066578063770bf99b146101375780639f596c9114610155578063bc17931d14610185578063d29602cd146101a1578063fedfd35c146101bf57610093565b80630e07cbe8146100985780632e03f838146100b65780634fa5a16f146100ea5780636097e21614610106575b600080fd5b6100a06101db565b6040516100ad9190610c8e565b60405180910390f35b6100d060048036038101906100cb9190610ce9565b6101e1565b6040516100e1959493929190610e0b565b60405180910390f35b61010460048036038101906100ff9190610e6c565b610354565b005b610120600480360381019061011b9190610ce9565b610668565b60405161012e929190610eac565b60405180910390f35b61013f610724565b60405161014c9190610f72565b60405180910390f35b61016f600480360381019061016a9190610ce9565b61085c565b60405161017c9190610f94565b60405180910390f35b61019f600480360381019061019a91906110e4565b610889565b005b6101a96109c6565b6040516101b6919061126e565b60405180910390f35b6101d960048036038101906101d491906110e4565b610ac1565b005b60005481565b6002602052806000526040600020600091509050806000018054610204906112bf565b80601f0160208091040260200160405190810160405280929190818152602001828054610230906112bf565b801561027d5780601f106102525761010080835404028352916020019161027d565b820191906000526020600020905b81548152906001019060200180831161026057829003601f168201915b505050505090806001018054610292906112bf565b80601f01602080910402602001604051908101604052809291908181526020018280546102be906112bf565b801561030b5780601f106102e05761010080835404028352916020019161030b565b820191906000526020600020905b8154815290600101906020018083116102ee57829003601f168201915b5050505050908060020160009054906101000a900473ffffffffffffffffffffffffffffffffffffffff16908060020160149054906101000a900460ff16908060030154905085565b60005482141561049057600260008054815260200190815260200160002060020160009054906101000a900473ffffffffffffffffffffffffffffffffffffffff1673ffffffffffffffffffffffffffffffffffffffff166002600084815260200190815260200160002060020160009054906101000a900473ffffffffffffffffffffffffffffffffffffffff1673ffffffffffffffffffffffffffffffffffffffff161461040357600080fd5b600015156002600084815260200190815260200160002060020160149054906101000a900460ff1615151461043757600080fd5b60016002600080548152602001908152602001600020600301541461045b57600080fd5b6001600260008054815260200190815260200160002060020160146101000a81548160ff021916908315150217905550610612565b336002600084815260200190815260200160002060020160006101000a81548173ffffffffffffffffffffffffffffffffffffffff021916908373ffffffffffffffffffffffffffffffffffffffff160217905550600260008054815260200190815260200160002060020160009054906101000a900473ffffffffffffffffffffffffffffffffffffffff1673ffffffffffffffffffffffffffffffffffffffff166002600084815260200190815260200160002060020160009054906101000a900473ffffffffffffffffffffffffffffffffffffffff1673ffffffffffffffffffffffffffffffffffffffff16141561058b57600080fd5b600015156002600084815260200190815260200160002060020160149054906101000a900460ff161515146105bf57600080fd5b60016002600084815260200190815260200160002060030154146105e257600080fd5b60016002600084815260200190815260200160002060020160146101000a81548160ff0219169083151502179055505b60026000838152602001908152602001600020600301546001828154811061063d5761063c6112f1565b5b9060005260206000209060020201600101600082825461065d919061134f565b925050819055505050565b6001818154811061067857600080fd5b906000526020600020906002020160009150905080600001805461069b906112bf565b80601f01602080910402602001604051908101604052809291908181526020018280546106c7906112bf565b80156107145780601f106106e957610100808354040283529160200191610714565b820191906000526020600020905b8154815290600101906020018083116106f757829003601f168201915b5050505050908060010154905082565b61072c610bb8565b610734610bb8565b60005b6001805490508110156108545781602001516001828154811061075d5761075c6112f1565b5b90600052602060002090600202016001015411156108415760018181548110610789576107886112f1565b5b90600052602060002090600202016040518060400160405290816000820180546107b2906112bf565b80601f01602080910402602001604051908101604052809291908181526020018280546107de906112bf565b801561082b5780601f106108005761010080835404028352916020019161082b565b820191906000526020600020905b81548152906001019060200180831161080e57829003601f168201915b5050505050815260200160018201548152505091505b808061084c906113a5565b915050610737565b508091505090565b60006002600083815260200190815260200160002060020160149054906101000a900460ff169050919050565b3373ffffffffffffffffffffffffffffffffffffffff16600260008054815260200190815260200160002060020160009054906101000a900473ffffffffffffffffffffffffffffffffffffffff1673ffffffffffffffffffffffffffffffffffffffff16146108f857600080fd5b600015156002600085815260200190815260200160002060020160149054906101000a900460ff1615151461092c57600080fd5b600060026000858152602001908152602001600020600301541461094f57600080fd5b81600260008581526020019081526020016000206001019080519060200190610979929190610bd2565b50806002600085815260200190815260200160002060000190805190602001906109a4929190610bd2565b5060016002600085815260200190815260200160002060030181905550505050565b60606001805480602002602001604051908101604052809291908181526020016000905b82821015610ab85783829060005260206000209060020201604051806040016040529081600082018054610a1d906112bf565b80601f0160208091040260200160405190810160405280929190818152602001828054610a49906112bf565b8015610a965780601f10610a6b57610100808354040283529160200191610a96565b820191906000526020600020905b815481529060010190602001808311610a7957829003601f168201915b50505050508152602001600182015481525050815260200190600101906109ea565b50505050905090565b826000819055508160026000805481526020019081526020016000206001019080519060200190610af3929190610bd2565b508060026000805481526020019081526020016000206000019080519060200190610b1f929190610bd2565b5033600260008054815260200190815260200160002060020160006101000a81548173ffffffffffffffffffffffffffffffffffffffff021916908373ffffffffffffffffffffffffffffffffffffffff1602179055507f4fc21debd2290e974de83265f313e5cc1f08c03e28aabea53d13ac99ae78122d83838333604051610bab94939291906113ee565b60405180910390a1505050565b604051806040016040528060608152602001600081525090565b828054610bde906112bf565b90600052602060002090601f016020900481019282610c005760008555610c47565b82601f10610c1957805160ff1916838001178555610c47565b82800160010185558215610c47579182015b82811115610c46578251825591602001919060010190610c2b565b5b509050610c549190610c58565b5090565b5b80821115610c71576000816000905550600101610c59565b5090565b6000819050919050565b610c8881610c75565b82525050565b6000602082019050610ca36000830184610c7f565b92915050565b6000604051905090565b600080fd5b600080fd5b610cc681610c75565b8114610cd157600080fd5b50565b600081359050610ce381610cbd565b92915050565b600060208284031215610cff57610cfe610cb3565b5b6000610d0d84828501610cd4565b91505092915050565b600081519050919050565b600082825260208201905092915050565b60005b83811015610d50578082015181840152602081019050610d35565b83811115610d5f576000848401525b50505050565b6000601f19601f8301169050919050565b6000610d8182610d16565b610d8b8185610d21565b9350610d9b818560208601610d32565b610da481610d65565b840191505092915050565b600073ffffffffffffffffffffffffffffffffffffffff82169050919050565b6000610dda82610daf565b9050919050565b610dea81610dcf565b82525050565b60008115159050919050565b610e0581610df0565b82525050565b600060a0820190508181036000830152610e258188610d76565b90508181036020830152610e398187610d76565b9050610e486040830186610de1565b610e556060830185610dfc565b610e626080830184610c7f565b9695505050505050565b60008060408385031215610e8357610e82610cb3565b5b6000610e9185828601610cd4565b9250506020610ea285828601610cd4565b9150509250929050565b60006040820190508181036000830152610ec68185610d76565b9050610ed56020830184610c7f565b9392505050565b600082825260208201905092915050565b6000610ef882610d16565b610f028185610edc565b9350610f12818560208601610d32565b610f1b81610d65565b840191505092915050565b610f2f81610c75565b82525050565b60006040830160008301518482036000860152610f528282610eed565b9150506020830151610f676020860182610f26565b508091505092915050565b60006020820190508181036000830152610f8c8184610f35565b905092915050565b6000602082019050610fa96000830184610dfc565b92915050565b600080fd5b600080fd5b7f4e487b7100000000000000000000000000000000000000000000000000000000600052604160045260246000fd5b610ff182610d65565b810181811067ffffffffffffffff821117156110105761100f610fb9565b5b80604052505050565b6000611023610ca9565b905061102f8282610fe8565b919050565b600067ffffffffffffffff82111561104f5761104e610fb9565b5b61105882610d65565b9050602081019050919050565b82818337600083830152505050565b600061108761108284611034565b611019565b9050828152602081018484840111156110a3576110a2610fb4565b5b6110ae848285611065565b509392505050565b600082601f8301126110cb576110ca610faf565b5b81356110db848260208601611074565b91505092915050565b6000806000606084860312156110fd576110fc610cb3565b5b600061110b86828701610cd4565b935050602084013567ffffffffffffffff81111561112c5761112b610cb8565b5b611138868287016110b6565b925050604084013567ffffffffffffffff81111561115957611158610cb8565b5b611165868287016110b6565b9150509250925092565b600081519050919050565b600082825260208201905092915050565b6000819050602082019050919050565b600060408301600083015184820360008601526111b88282610eed565b91505060208301516111cd6020860182610f26565b508091505092915050565b60006111e4838361119b565b905092915050565b6000602082019050919050565b60006112048261116f565b61120e818561117a565b9350836020820285016112208561118b565b8060005b8581101561125c578484038952815161123d85826111d8565b9450611248836111ec565b925060208a01995050600181019050611224565b50829750879550505050505092915050565b6000602082019050818103600083015261128881846111f9565b905092915050565b7f4e487b7100000000000000000000000000000000000000000000000000000000600052602260045260246000fd5b600060028204905060018216806112d757607f821691505b602082108114156112eb576112ea611290565b5b50919050565b7f4e487b7100000000000000000000000000000000000000000000000000000000600052603260045260246000fd5b7f4e487b7100000000000000000000000000000000000000000000000000000000600052601160045260246000fd5b600061135a82610c75565b915061136583610c75565b9250827fffffffffffffffffffffffffffffffffffffffffffffffffffffffffffffffff0382111561139a57611399611320565b5b828201905092915050565b60006113b082610c75565b91507fffffffffffffffffffffffffffffffffffffffffffffffffffffffffffffffff8214156113e3576113e2611320565b5b600182019050919050565b60006080820190506114036000830187610c7f565b81810360208301526114158186610d76565b905081810360408301526114298185610d76565b90506114386060830184610de1565b9594505050505056fea2646970667358221220717579a6389f93ae9e26e20481f1e6ee13ff380e4fd9c279578e428ecde5775364736f6c634300080b0033",
  "immutableReferences": {},
  "source": "// SPDX-License-Identifier: MIT\npragma solidity >=0.4.22 <0.9.0;\n\ncontract Votacion {\n    // Propiedades del Votante\n    struct Votante {\n        string apellido; // Se puede cambiar por una direccion de Ethereum\n        string nombre; // Se puede cambiar por una direccion de Ethereum\n        address billetera;\n        bool voto;\n        uint256 pesoVoto; // Se hace con peso del voto ya que podria delegarse el voto entonces el pesos seria 2 | 3 | 4 etc\n    }\n    event MesaAbierta(\n        uint256 dni,\n        string apellido,\n        string nombre,\n        address billetera\n    );\n\n    // Propiedades de la propuesta electoral\n    struct Propuesta {\n        string lista; //Se puede optimizar usando bytes32\n        uint256 contadorVotos;\n    }\n\n    // Presidente de Mesa\n    uint256 public presidenteMesa;\n\n    // Arreglo de propuestas\n    Propuesta[] public propuestas;\n\n    // Mapeo de votantes\n    mapping(uint256 => Votante) public votantes;\n\n    // Solo se ejecuta por unica vez cuando se deploya el contrato\n    constructor() {\n        propuestas.push(Propuesta({lista: \"Lista 501R\", contadorVotos: 0}));\n        propuestas.push(Propuesta({lista: \"Lista 503A\", contadorVotos: 0}));\n    }\n\n    // Funcion para dar de alta la mesa\n    function darAltaMesa(\n        uint256 _dni,\n        string memory _nombre,\n        string memory _apellido\n    ) public {\n        presidenteMesa = _dni;\n        votantes[presidenteMesa].nombre = _nombre;\n        votantes[presidenteMesa].apellido = _apellido;\n        votantes[presidenteMesa].billetera = msg.sender;\n        emit MesaAbierta(_dni, _nombre, _apellido, msg.sender);\n    }\n\n    // Funcion para autorizar el voto\n    function autorizarVoto(\n        uint256 _dni,\n        string memory _nombre,\n        string memory _apellido\n    ) public {\n        // Ve si el presidente de mesa es el que esta habilidato a votar\n        require(votantes[presidenteMesa].billetera == msg.sender); //Ture | False\n\n        // Ve si el votante ya voto\n        require(votantes[_dni].voto == false); //True | False\n\n        //verifica que el voto solo valga 0\n        require(votantes[_dni].pesoVoto == 0); //True | False\n\n        //Asigna peso al voto y otros parametros\n        votantes[_dni].nombre = _nombre;\n        votantes[_dni].apellido = _apellido;\n        votantes[_dni].pesoVoto = 1;\n    }\n\n    // Funcion para votar\n    function votar(uint256 _dni, uint256 _idPropuesta) public {\n        if (_dni == presidenteMesa) {\n            require(\n                votantes[_dni].billetera == votantes[presidenteMesa].billetera\n            ); //True | False\n            require(votantes[_dni].voto == false); //True | False\n            require(votantes[presidenteMesa].pesoVoto == 1); //True | False\n            votantes[presidenteMesa].voto = true;\n        } else {\n            votantes[_dni].billetera = msg.sender; // Asigna la billetera del Votante\n            require(\n                votantes[_dni].billetera != votantes[presidenteMesa].billetera\n            ); // Verifica si las billeteres son diferentes\n            require(votantes[_dni].voto == false); // Verifica que el votante no haya votado\n            require(votantes[_dni].pesoVoto == 1); // Si el peso del voto no es 1, no esta autorizado\n            votantes[_dni].voto = true; // Voto\n        }\n\n        propuestas[_idPropuesta].contadorVotos += votantes[_dni].pesoVoto; // Asigna el peso del voto a la propuesta\n    }\n\n    // Funcion que obtine el resultado de las propuestas\n    function obtenerResultado() public view returns (Propuesta memory) {\n        Propuesta memory ganador; // variable para controlar el ganador\n        // Recorre las propuestas viendo cual tine mas votos\n        for (uint256 i = 0; i < propuestas.length; i++) {\n            if (propuestas[i].contadorVotos > ganador.contadorVotos) {\n                ganador = propuestas[i]; // Asigna la propuesta con mas votos\n            }\n        }\n        return ganador;\n    }\n\n    // Funcion que obtine todas las propuestas\n    function obtenerPropuestas() public view returns (Propuesta[] memory) {\n        return propuestas;\n    }\n\n    // Funcion que verifica si el votante ya voto\n    function verificarVoto(uint256 _dni) public view returns (bool) {\n        return votantes[_dni].voto;\n    }\n}\n",
  "sourcePath": "/home/william/Documentos/Proyectos/SistemaDeVotacion/contracts/Votacion.sol",
  "compiler": {
    "name": "solc",
    "version": "0.8.11+commit.d7f03943.Emscripten.clang"
  },
  "schemaVersion": "3.4.4",
  "updatedAt": "2022-01-20T01:32:54.220Z",
  "networkType": "ethereum",
  "devdoc": {
    "kind": "dev",
    "methods": {},
    "version": 1
  },
  "userdoc": {
    "kind": "user",
    "methods": {},
    "version": 1
  }
}